{
  "_format": "hh-sol-artifact-1",
  "contractName": "MedicalRecord",
  "sourceName": "contracts/MedicalRecord.sol",
  "abi": [
    {
      "inputs": [],
      "name": "InvalidInitialization",
      "type": "error"
    },
    {
      "inputs": [],
      "name": "NotInitializing",
      "type": "error"
    },
    {
      "anonymous": false,
      "inputs": [
        {
          "indexed": false,
          "internalType": "address",
          "name": "sender",
          "type": "address"
        },
        {
          "indexed": false,
          "internalType": "uint256",
          "name": "recordId",
          "type": "uint256"
        }
      ],
      "name": "CreateRecord",
      "type": "event"
    },
    {
      "anonymous": false,
      "inputs": [
        {
          "indexed": false,
          "internalType": "uint256",
          "name": "recordId",
          "type": "uint256"
        }
      ],
      "name": "DeleteRecord",
      "type": "event"
    },
    {
      "anonymous": false,
      "inputs": [
        {
          "indexed": false,
          "internalType": "uint64",
          "name": "version",
          "type": "uint64"
        }
      ],
      "name": "Initialized",
      "type": "event"
    },
    {
      "anonymous": false,
      "inputs": [
        {
          "indexed": false,
          "internalType": "uint256",
          "name": "recordId",
          "type": "uint256"
        }
      ],
      "name": "UpdateRecord",
      "type": "event"
    },
    {
      "inputs": [
        {
          "internalType": "address",
          "name": "_newOwner",
          "type": "address"
        }
      ],
      "name": "changeOwner",
      "outputs": [],
      "stateMutability": "nonpayable",
      "type": "function"
    },
    {
      "inputs": [
        {
          "internalType": "string",
          "name": "data",
          "type": "string"
        },
        {
          "internalType": "string",
          "name": "userId",
          "type": "string"
        },
        {
          "internalType": "string",
          "name": "numberId",
          "type": "string"
        },
        {
          "internalType": "string",
          "name": "doctorId",
          "type": "string"
        }
      ],
      "name": "createRecord",
      "outputs": [],
      "stateMutability": "nonpayable",
      "type": "function"
    },
    {
      "inputs": [
        {
          "internalType": "uint256",
          "name": "id",
          "type": "uint256"
        }
      ],
      "name": "deleteRecord",
      "outputs": [],
      "stateMutability": "nonpayable",
      "type": "function"
    },
    {
      "inputs": [
        {
          "internalType": "uint256",
          "name": "id",
          "type": "uint256"
        }
      ],
      "name": "getRecordById",
      "outputs": [
        {
          "components": [
            {
              "components": [
                {
                  "internalType": "uint256",
                  "name": "id",
                  "type": "uint256"
                },
                {
                  "internalType": "string",
                  "name": "data",
                  "type": "string"
                },
                {
                  "internalType": "bool",
                  "name": "isDeleted",
                  "type": "bool"
                },
                {
                  "internalType": "string",
                  "name": "userId",
                  "type": "string"
                },
                {
                  "internalType": "string",
                  "name": "numberId",
                  "type": "string"
                },
                {
                  "internalType": "string",
                  "name": "doctorId",
                  "type": "string"
                },
                {
                  "internalType": "uint256",
                  "name": "createdAt",
                  "type": "uint256"
                },
                {
                  "internalType": "uint256",
                  "name": "updatedAt",
                  "type": "uint256"
                }
              ],
              "internalType": "struct MedicalRecord.Record",
              "name": "record",
              "type": "tuple"
            },
            {
              "components": [
                {
                  "internalType": "uint256",
                  "name": "id",
                  "type": "uint256"
                },
                {
                  "internalType": "uint256",
                  "name": "recordId",
                  "type": "uint256"
                },
                {
                  "internalType": "string",
                  "name": "data",
                  "type": "string"
                },
                {
                  "internalType": "bool",
                  "name": "isDeleted",
                  "type": "bool"
                },
                {
                  "internalType": "string",
                  "name": "userId",
                  "type": "string"
                },
                {
                  "internalType": "string",
                  "name": "numberId",
                  "type": "string"
                },
                {
                  "internalType": "string",
                  "name": "doctorId",
                  "type": "string"
                },
                {
                  "internalType": "uint256",
                  "name": "createdAt",
                  "type": "uint256"
                },
                {
                  "internalType": "uint256",
                  "name": "updatedAt",
                  "type": "uint256"
                },
                {
                  "internalType": "uint256",
                  "name": "pushedAt",
                  "type": "uint256"
                }
              ],
              "internalType": "struct MedicalRecord.History[]",
              "name": "histories",
              "type": "tuple[]"
            }
          ],
          "internalType": "struct MedicalRecord.RecordWithHistory",
          "name": "",
          "type": "tuple"
        }
      ],
      "stateMutability": "view",
      "type": "function"
    },
    {
      "inputs": [],
      "name": "getRecords",
      "outputs": [
        {
          "components": [
            {
              "internalType": "uint256",
              "name": "id",
              "type": "uint256"
            },
            {
              "internalType": "string",
              "name": "data",
              "type": "string"
            },
            {
              "internalType": "bool",
              "name": "isDeleted",
              "type": "bool"
            },
            {
              "internalType": "string",
              "name": "userId",
              "type": "string"
            },
            {
              "internalType": "string",
              "name": "numberId",
              "type": "string"
            },
            {
              "internalType": "string",
              "name": "doctorId",
              "type": "string"
            },
            {
              "internalType": "uint256",
              "name": "createdAt",
              "type": "uint256"
            },
            {
              "internalType": "uint256",
              "name": "updatedAt",
              "type": "uint256"
            }
          ],
          "internalType": "struct MedicalRecord.Record[]",
          "name": "",
          "type": "tuple[]"
        }
      ],
      "stateMutability": "view",
      "type": "function"
    },
    {
      "inputs": [
        {
          "internalType": "string",
          "name": "numberId",
          "type": "string"
        }
      ],
      "name": "getRecordsByNumberId",
      "outputs": [
        {
          "components": [
            {
              "internalType": "uint256",
              "name": "id",
              "type": "uint256"
            },
            {
              "internalType": "string",
              "name": "data",
              "type": "string"
            },
            {
              "internalType": "bool",
              "name": "isDeleted",
              "type": "bool"
            },
            {
              "internalType": "string",
              "name": "userId",
              "type": "string"
            },
            {
              "internalType": "string",
              "name": "numberId",
              "type": "string"
            },
            {
              "internalType": "string",
              "name": "doctorId",
              "type": "string"
            },
            {
              "internalType": "uint256",
              "name": "createdAt",
              "type": "uint256"
            },
            {
              "internalType": "uint256",
              "name": "updatedAt",
              "type": "uint256"
            }
          ],
          "internalType": "struct MedicalRecord.Record[]",
          "name": "",
          "type": "tuple[]"
        }
      ],
      "stateMutability": "view",
      "type": "function"
    },
    {
      "inputs": [
        {
          "internalType": "string",
          "name": "userId",
          "type": "string"
        }
      ],
      "name": "getRecordsByUserId",
      "outputs": [
        {
          "components": [
            {
              "internalType": "uint256",
              "name": "id",
              "type": "uint256"
            },
            {
              "internalType": "string",
              "name": "data",
              "type": "string"
            },
            {
              "internalType": "bool",
              "name": "isDeleted",
              "type": "bool"
            },
            {
              "internalType": "string",
              "name": "userId",
              "type": "string"
            },
            {
              "internalType": "string",
              "name": "numberId",
              "type": "string"
            },
            {
              "internalType": "string",
              "name": "doctorId",
              "type": "string"
            },
            {
              "internalType": "uint256",
              "name": "createdAt",
              "type": "uint256"
            },
            {
              "internalType": "uint256",
              "name": "updatedAt",
              "type": "uint256"
            }
          ],
          "internalType": "struct MedicalRecord.Record[]",
          "name": "",
          "type": "tuple[]"
        }
      ],
      "stateMutability": "view",
      "type": "function"
    },
    {
      "inputs": [
        {
          "internalType": "string",
          "name": "doctorId",
          "type": "string"
        }
      ],
      "name": "getRecordsCreatedByDoctorId",
      "outputs": [
        {
          "components": [
            {
              "internalType": "uint256",
              "name": "id",
              "type": "uint256"
            },
            {
              "internalType": "string",
              "name": "data",
              "type": "string"
            },
            {
              "internalType": "bool",
              "name": "isDeleted",
              "type": "bool"
            },
            {
              "internalType": "string",
              "name": "userId",
              "type": "string"
            },
            {
              "internalType": "string",
              "name": "numberId",
              "type": "string"
            },
            {
              "internalType": "string",
              "name": "doctorId",
              "type": "string"
            },
            {
              "internalType": "uint256",
              "name": "createdAt",
              "type": "uint256"
            },
            {
              "internalType": "uint256",
              "name": "updatedAt",
              "type": "uint256"
            }
          ],
          "internalType": "struct MedicalRecord.Record[]",
          "name": "",
          "type": "tuple[]"
        }
      ],
      "stateMutability": "view",
      "type": "function"
    },
    {
      "inputs": [],
      "name": "initialize",
      "outputs": [],
      "stateMutability": "nonpayable",
      "type": "function"
    },
    {
      "inputs": [],
      "name": "owner",
      "outputs": [
        {
          "internalType": "address",
          "name": "",
          "type": "address"
        }
      ],
      "stateMutability": "view",
      "type": "function"
    },
    {
      "inputs": [
        {
          "internalType": "uint256",
          "name": "id",
          "type": "uint256"
        },
        {
          "internalType": "string",
          "name": "data",
          "type": "string"
        }
      ],
      "name": "updateRecord",
      "outputs": [],
      "stateMutability": "nonpayable",
      "type": "function"
    }
  ],
  "bytecode": "0x608060405234801561001057600080fd5b50613cf9806100206000396000f3fe608060405234801561001057600080fd5b50600436106100a85760003560e01c80638da5cb5b116100715780638da5cb5b1461014f5780638eff3c291461016d578063a6f9dae11461018b578063b797dcb5146101a7578063d152f20f146101c3578063e75b8b23146101f3576100a8565b806207bf81146100ad578063061f9811146100dd5780631c631466146100f95780638129fc1c14610115578063830258a81461011f575b600080fd5b6100c760048036038101906100c29190612ed5565b610223565b6040516100d49190613158565b60405180910390f35b6100f760048036038101906100f291906131a6565b6106cc565b005b610113600480360381019061010e91906131d3565b610d3b565b005b61011d6113cb565b005b61013960048036038101906101349190612ed5565b611590565b6040516101469190613158565b60405180910390f35b610157611a39565b6040516101649190613270565b60405180910390f35b610175611a5d565b6040516101829190613158565b60405180910390f35b6101a560048036038101906101a091906132b7565b611dcf565b005b6101c160048036038101906101bc91906132e4565b611ea0565b005b6101dd60048036038101906101d89190612ed5565b612078565b6040516101ea9190613158565b60405180910390f35b61020d600480360381019061020891906131a6565b612521565b60405161021a91906135b0565b60405180910390f35b6060600060018054905067ffffffffffffffff81111561024657610245612daa565b5b60405190808252806020026020018201604052801561027f57816020015b61026c612cbf565b8152602001906001900390816102645790505b5090506000805b6001805490508110156105f957846040516020016102a4919061361c565b60405160208183030381529060405280519060200120600182815481106102ce576102cd61363e565b5b90600052602060002090600802016004016040516020016102ef9190613766565b60405160208183030381529060405280519060200120036105e6576001818154811061031e5761031d61363e565b5b906000526020600020906008020160405180610100016040529081600082015481526020016001820180546103529061369c565b80601f016020809104026020016040519081016040528092919081815260200182805461037e9061369c565b80156103cb5780601f106103a0576101008083540402835291602001916103cb565b820191906000526020600020905b8154815290600101906020018083116103ae57829003601f168201915b505050505081526020016002820160009054906101000a900460ff161515151581526020016003820180546103ff9061369c565b80601f016020809104026020016040519081016040528092919081815260200182805461042b9061369c565b80156104785780601f1061044d57610100808354040283529160200191610478565b820191906000526020600020905b81548152906001019060200180831161045b57829003601f168201915b505050505081526020016004820180546104919061369c565b80601f01602080910402602001604051908101604052809291908181526020018280546104bd9061369c565b801561050a5780601f106104df5761010080835404028352916020019161050a565b820191906000526020600020905b8154815290600101906020018083116104ed57829003601f168201915b505050505081526020016005820180546105239061369c565b80601f016020809104026020016040519081016040528092919081815260200182805461054f9061369c565b801561059c5780601f106105715761010080835404028352916020019161059c565b820191906000526020600020905b81548152906001019060200180831161057f57829003601f168201915b50505050508152602001600682015481526020016007820154815250508383815181106105cc576105cb61363e565b5b602002602001018190525081806105e2906137b7565b9250505b80806105f1906137b7565b915050610286565b5060008167ffffffffffffffff81111561061657610615612daa565b5b60405190808252806020026020018201604052801561064f57816020015b61063c612cbf565b8152602001906001900390816106345790505b50905060005b828110156106c057836001828561066c91906137ff565b61067691906137ff565b815181106106875761068661363e565b5b60200260200101518282815181106106a2576106a161363e565b5b602002602001018190525080806106b8906137b7565b915050610655565b50809350505050919050565b60008054906101000a900473ffffffffffffffffffffffffffffffffffffffff1673ffffffffffffffffffffffffffffffffffffffff163373ffffffffffffffffffffffffffffffffffffffff161461075a576040517f08c379a0000000000000000000000000000000000000000000000000000000008152600401610751906138a5565b60405180910390fd5b806000600182815481106107715761077061363e565b5b9060005260206000209060080201600301805461078d9061369c565b9050116107cf576040517f08c379a00000000000000000000000000000000000000000000000000000000081526004016107c690613911565b60405180910390fd5b60001515600182815481106107e7576107e661363e565b5b906000526020600020906008020160020160009054906101000a900460ff16151514610848576040517f08c379a000000000000000000000000000000000000000000000000000000000815260040161083f9061397d565b60405180910390fd5b60026040518061014001604052806002805490508152602001600185815481106108755761087461363e565b5b9060005260206000209060080201600001548152602001600185815481106108a05761089f61363e565b5b906000526020600020906008020160010180546108bc9061369c565b80601f01602080910402602001604051908101604052809291908181526020018280546108e89061369c565b80156109355780601f1061090a57610100808354040283529160200191610935565b820191906000526020600020905b81548152906001019060200180831161091857829003601f168201915b50505050508152602001600185815481106109535761095261363e565b5b906000526020600020906008020160020160009054906101000a900460ff16151581526020016001858154811061098d5761098c61363e565b5b906000526020600020906008020160030180546109a99061369c565b80601f01602080910402602001604051908101604052809291908181526020018280546109d59061369c565b8015610a225780601f106109f757610100808354040283529160200191610a22565b820191906000526020600020905b815481529060010190602001808311610a0557829003601f168201915b5050505050815260200160018581548110610a4057610a3f61363e565b5b90600052602060002090600802016004018054610a5c9061369c565b80601f0160208091040260200160405190810160405280929190818152602001828054610a889061369c565b8015610ad55780601f10610aaa57610100808354040283529160200191610ad5565b820191906000526020600020905b815481529060010190602001808311610ab857829003601f168201915b5050505050815260200160018581548110610af357610af261363e565b5b90600052602060002090600802016005018054610b0f9061369c565b80601f0160208091040260200160405190810160405280929190818152602001828054610b3b9061369c565b8015610b885780601f10610b5d57610100808354040283529160200191610b88565b820191906000526020600020905b815481529060010190602001808311610b6b57829003601f168201915b5050505050815260200160018581548110610ba657610ba561363e565b5b906000526020600020906008020160060154815260200160018581548110610bd157610bd061363e565b5b90600052602060002090600802016007015481526020014281525090806001815401808255809150506001900390600052602060002090600a020160009091909190915060008201518160000155602082015181600101556040820151816002019081610c3e9190613b34565b5060608201518160030160006101000a81548160ff0219169083151502179055506080820151816004019081610c749190613b34565b5060a0820151816005019081610c8a9190613b34565b5060c0820151816006019081610ca09190613b34565b5060e082015181600701556101008201518160080155610120820151816009015550506001808381548110610cd857610cd761363e565b5b906000526020600020906008020160020160006101000a81548160ff0219169083151502179055507f576c08cbfd052a7a2fc4b46ca4879527b302d82a1f038928ff907015ec9d2b2482604051610d2f9190613c15565b60405180910390a15050565b60008054906101000a900473ffffffffffffffffffffffffffffffffffffffff1673ffffffffffffffffffffffffffffffffffffffff163373ffffffffffffffffffffffffffffffffffffffff1614610dc9576040517f08c379a0000000000000000000000000000000000000000000000000000000008152600401610dc0906138a5565b60405180910390fd5b81600060018281548110610de057610ddf61363e565b5b90600052602060002090600802016003018054610dfc9061369c565b905011610e3e576040517f08c379a0000000000000000000000000000000000000000000000000000000008152600401610e3590613911565b60405180910390fd5b6000151560018281548110610e5657610e5561363e565b5b906000526020600020906008020160020160009054906101000a900460ff16151514610eb7576040517f08c379a0000000000000000000000000000000000000000000000000000000008152600401610eae9061397d565b60405180910390fd5b6002604051806101400160405280600280549050815260200160018681548110610ee457610ee361363e565b5b906000526020600020906008020160000154815260200160018681548110610f0f57610f0e61363e565b5b90600052602060002090600802016001018054610f2b9061369c565b80601f0160208091040260200160405190810160405280929190818152602001828054610f579061369c565b8015610fa45780601f10610f7957610100808354040283529160200191610fa4565b820191906000526020600020905b815481529060010190602001808311610f8757829003601f168201915b5050505050815260200160018681548110610fc257610fc161363e565b5b906000526020600020906008020160020160009054906101000a900460ff161515815260200160018681548110610ffc57610ffb61363e565b5b906000526020600020906008020160030180546110189061369c565b80601f01602080910402602001604051908101604052809291908181526020018280546110449061369c565b80156110915780601f1061106657610100808354040283529160200191611091565b820191906000526020600020905b81548152906001019060200180831161107457829003601f168201915b50505050508152602001600186815481106110af576110ae61363e565b5b906000526020600020906008020160040180546110cb9061369c565b80601f01602080910402602001604051908101604052809291908181526020018280546110f79061369c565b80156111445780601f1061111957610100808354040283529160200191611144565b820191906000526020600020905b81548152906001019060200180831161112757829003601f168201915b50505050508152602001600186815481106111625761116161363e565b5b9060005260206000209060080201600501805461117e9061369c565b80601f01602080910402602001604051908101604052809291908181526020018280546111aa9061369c565b80156111f75780601f106111cc576101008083540402835291602001916111f7565b820191906000526020600020905b8154815290600101906020018083116111da57829003601f168201915b50505050508152602001600186815481106112155761121461363e565b5b9060005260206000209060080201600601548152602001600186815481106112405761123f61363e565b5b90600052602060002090600802016007015481526020014281525090806001815401808255809150506001900390600052602060002090600a0201600090919091909150600082015181600001556020820151816001015560408201518160020190816112ad9190613b34565b5060608201518160030160006101000a81548160ff02191690831515021790555060808201518160040190816112e39190613b34565b5060a08201518160050190816112f99190613b34565b5060c082015181600601908161130f9190613b34565b5060e0820151816007015561010082015181600801556101208201518160090155505081600184815481106113475761134661363e565b5b906000526020600020906008020160010190816113649190613b34565b50426001848154811061137a5761137961363e565b5b9060005260206000209060080201600701819055507fd29bb27603203a2a2aafae9bbd58b45cc344541f4afea69e89a4c5094f4818ee836040516113be9190613c15565b60405180910390a1505050565b60006113d5612c97565b905060008160000160089054906101000a900460ff1615905060008260000160009054906101000a900467ffffffffffffffff1690506000808267ffffffffffffffff161480156114235750825b9050600060018367ffffffffffffffff16148015611458575060003073ffffffffffffffffffffffffffffffffffffffff163b145b905081158015611466575080155b1561149d576040517ff92ee8a900000000000000000000000000000000000000000000000000000000815260040160405180910390fd5b60018560000160006101000a81548167ffffffffffffffff021916908367ffffffffffffffff16021790555083156114ed5760018560000160086101000a81548160ff0219169083151502179055505b336000806101000a81548173ffffffffffffffffffffffffffffffffffffffff021916908373ffffffffffffffffffffffffffffffffffffffff16021790555083156115895760008560000160086101000a81548160ff0219169083151502179055507fc7f505b2f371ae2175ee4913f4499e1f2633a7b5936321eed1cdaeb6115181d260016040516115809190613c7f565b60405180910390a15b5050505050565b6060600060018054905067ffffffffffffffff8111156115b3576115b2612daa565b5b6040519080825280602002602001820160405280156115ec57816020015b6115d9612cbf565b8152602001906001900390816115d15790505b5090506000805b6001805490508110156119665784604051602001611611919061361c565b604051602081830303815290604052805190602001206001828154811061163b5761163a61363e565b5b906000526020600020906008020160030160405160200161165c9190613766565b6040516020818303038152906040528051906020012003611953576001818154811061168b5761168a61363e565b5b906000526020600020906008020160405180610100016040529081600082015481526020016001820180546116bf9061369c565b80601f01602080910402602001604051908101604052809291908181526020018280546116eb9061369c565b80156117385780601f1061170d57610100808354040283529160200191611738565b820191906000526020600020905b81548152906001019060200180831161171b57829003601f168201915b505050505081526020016002820160009054906101000a900460ff1615151515815260200160038201805461176c9061369c565b80601f01602080910402602001604051908101604052809291908181526020018280546117989061369c565b80156117e55780601f106117ba576101008083540402835291602001916117e5565b820191906000526020600020905b8154815290600101906020018083116117c857829003601f168201915b505050505081526020016004820180546117fe9061369c565b80601f016020809104026020016040519081016040528092919081815260200182805461182a9061369c565b80156118775780601f1061184c57610100808354040283529160200191611877565b820191906000526020600020905b81548152906001019060200180831161185a57829003601f168201915b505050505081526020016005820180546118909061369c565b80601f01602080910402602001604051908101604052809291908181526020018280546118bc9061369c565b80156119095780601f106118de57610100808354040283529160200191611909565b820191906000526020600020905b8154815290600101906020018083116118ec57829003601f168201915b50505050508152602001600682015481526020016007820154815250508383815181106119395761193861363e565b5b6020026020010181905250818061194f906137b7565b9250505b808061195e906137b7565b9150506115f3565b5060008167ffffffffffffffff81111561198357611982612daa565b5b6040519080825280602002602001820160405280156119bc57816020015b6119a9612cbf565b8152602001906001900390816119a15790505b50905060005b82811015611a2d5783600182856119d991906137ff565b6119e391906137ff565b815181106119f4576119f361363e565b5b6020026020010151828281518110611a0f57611a0e61363e565b5b60200260200101819052508080611a25906137b7565b9150506119c2565b50809350505050919050565b60008054906101000a900473ffffffffffffffffffffffffffffffffffffffff1681565b6060600060018054905067ffffffffffffffff811115611a8057611a7f612daa565b5b604051908082528060200260200182016040528015611ab957816020015b611aa6612cbf565b815260200190600190039081611a9e5790505b50905060005b600180549050811015611dc75760018082600180549050611ae091906137ff565b611aea91906137ff565b81548110611afb57611afa61363e565b5b90600052602060002090600802016040518061010001604052908160008201548152602001600182018054611b2f9061369c565b80601f0160208091040260200160405190810160405280929190818152602001828054611b5b9061369c565b8015611ba85780601f10611b7d57610100808354040283529160200191611ba8565b820191906000526020600020905b815481529060010190602001808311611b8b57829003601f168201915b505050505081526020016002820160009054906101000a900460ff16151515158152602001600382018054611bdc9061369c565b80601f0160208091040260200160405190810160405280929190818152602001828054611c089061369c565b8015611c555780601f10611c2a57610100808354040283529160200191611c55565b820191906000526020600020905b815481529060010190602001808311611c3857829003601f168201915b50505050508152602001600482018054611c6e9061369c565b80601f0160208091040260200160405190810160405280929190818152602001828054611c9a9061369c565b8015611ce75780601f10611cbc57610100808354040283529160200191611ce7565b820191906000526020600020905b815481529060010190602001808311611cca57829003601f168201915b50505050508152602001600582018054611d009061369c565b80601f0160208091040260200160405190810160405280929190818152602001828054611d2c9061369c565b8015611d795780601f10611d4e57610100808354040283529160200191611d79565b820191906000526020600020905b815481529060010190602001808311611d5c57829003601f168201915b5050505050815260200160068201548152602001600782015481525050828281518110611da957611da861363e565b5b60200260200101819052508080611dbf906137b7565b915050611abf565b508091505090565b60008054906101000a900473ffffffffffffffffffffffffffffffffffffffff1673ffffffffffffffffffffffffffffffffffffffff163373ffffffffffffffffffffffffffffffffffffffff1614611e5d576040517f08c379a0000000000000000000000000000000000000000000000000000000008152600401611e54906138a5565b60405180910390fd5b806000806101000a81548173ffffffffffffffffffffffffffffffffffffffff021916908373ffffffffffffffffffffffffffffffffffffffff16021790555050565b60008054906101000a900473ffffffffffffffffffffffffffffffffffffffff1673ffffffffffffffffffffffffffffffffffffffff163373ffffffffffffffffffffffffffffffffffffffff1614611f2e576040517f08c379a0000000000000000000000000000000000000000000000000000000008152600401611f25906138a5565b60405180910390fd5b600060018054905090506001604051806101000160405280838152602001878152602001600015158152602001868152602001858152602001848152602001428152602001428152509080600181540180825580915050600190039060005260206000209060080201600090919091909150600082015181600001556020820151816001019081611fbf9190613b34565b5060408201518160020160006101000a81548160ff0219169083151502179055506060820151816003019081611ff59190613b34565b50608082015181600401908161200b9190613b34565b5060a08201518160050190816120219190613b34565b5060c0820151816006015560e0820151816007015550507f08c250624fb821cc406e30027c7558c4888da0fd7e941f25b85a7e9d75c6a6563382604051612069929190613c9a565b60405180910390a15050505050565b6060600060018054905067ffffffffffffffff81111561209b5761209a612daa565b5b6040519080825280602002602001820160405280156120d457816020015b6120c1612cbf565b8152602001906001900390816120b95790505b5090506000805b60018054905081101561244e57846040516020016120f9919061361c565b60405160208183030381529060405280519060200120600182815481106121235761212261363e565b5b90600052602060002090600802016005016040516020016121449190613766565b604051602081830303815290604052805190602001200361243b57600181815481106121735761217261363e565b5b906000526020600020906008020160405180610100016040529081600082015481526020016001820180546121a79061369c565b80601f01602080910402602001604051908101604052809291908181526020018280546121d39061369c565b80156122205780601f106121f557610100808354040283529160200191612220565b820191906000526020600020905b81548152906001019060200180831161220357829003601f168201915b505050505081526020016002820160009054906101000a900460ff161515151581526020016003820180546122549061369c565b80601f01602080910402602001604051908101604052809291908181526020018280546122809061369c565b80156122cd5780601f106122a2576101008083540402835291602001916122cd565b820191906000526020600020905b8154815290600101906020018083116122b057829003601f168201915b505050505081526020016004820180546122e69061369c565b80601f01602080910402602001604051908101604052809291908181526020018280546123129061369c565b801561235f5780601f106123345761010080835404028352916020019161235f565b820191906000526020600020905b81548152906001019060200180831161234257829003601f168201915b505050505081526020016005820180546123789061369c565b80601f01602080910402602001604051908101604052809291908181526020018280546123a49061369c565b80156123f15780601f106123c6576101008083540402835291602001916123f1565b820191906000526020600020905b8154815290600101906020018083116123d457829003601f168201915b50505050508152602001600682015481526020016007820154815250508383815181106124215761242061363e565b5b60200260200101819052508180612437906137b7565b9250505b8080612446906137b7565b9150506120db565b5060008167ffffffffffffffff81111561246b5761246a612daa565b5b6040519080825280602002602001820160405280156124a457816020015b612491612cbf565b8152602001906001900390816124895790505b50905060005b828110156125155783600182856124c191906137ff565b6124cb91906137ff565b815181106124dc576124db61363e565b5b60200260200101518282815181106124f7576124f661363e565b5b6020026020010181905250808061250d906137b7565b9150506124aa565b50809350505050919050565b612529612d06565b600060028054905067ffffffffffffffff81111561254a57612549612daa565b5b60405190808252806020026020018201604052801561258357816020015b612570612d26565b8152602001906001900390816125685790505b5090506000805b60028054905081101561291257846040516020016125a89190613c15565b60405160208183030381529060405280519060200120600282815481106125d2576125d161363e565b5b90600052602060002090600a0201600101546040516020016125f49190613c15565b60405160208183030381529060405280519060200120036128ff57600281815481106126235761262261363e565b5b90600052602060002090600a02016040518061014001604052908160008201548152602001600182015481526020016002820180546126619061369c565b80601f016020809104026020016040519081016040528092919081815260200182805461268d9061369c565b80156126da5780601f106126af576101008083540402835291602001916126da565b820191906000526020600020905b8154815290600101906020018083116126bd57829003601f168201915b505050505081526020016003820160009054906101000a900460ff1615151515815260200160048201805461270e9061369c565b80601f016020809104026020016040519081016040528092919081815260200182805461273a9061369c565b80156127875780601f1061275c57610100808354040283529160200191612787565b820191906000526020600020905b81548152906001019060200180831161276a57829003601f168201915b505050505081526020016005820180546127a09061369c565b80601f01602080910402602001604051908101604052809291908181526020018280546127cc9061369c565b80156128195780601f106127ee57610100808354040283529160200191612819565b820191906000526020600020905b8154815290600101906020018083116127fc57829003601f168201915b505050505081526020016006820180546128329061369c565b80601f016020809104026020016040519081016040528092919081815260200182805461285e9061369c565b80156128ab5780601f10612880576101008083540402835291602001916128ab565b820191906000526020600020905b81548152906001019060200180831161288e57829003601f168201915b5050505050815260200160078201548152602001600882015481526020016009820154815250508383815181106128e5576128e461363e565b5b602002602001018190525081806128fb906137b7565b9250505b808061290a906137b7565b91505061258a565b5060008167ffffffffffffffff81111561292f5761292e612daa565b5b60405190808252806020026020018201604052801561296857816020015b612955612d26565b81526020019060019003908161294d5790505b50905060005b828110156129c2578381815181106129895761298861363e565b5b60200260200101518282815181106129a4576129a361363e565b5b602002602001018190525080806129ba906137b7565b91505061296e565b506129cb612d06565b600186815481106129df576129de61363e565b5b90600052602060002090600802016040518061010001604052908160008201548152602001600182018054612a139061369c565b80601f0160208091040260200160405190810160405280929190818152602001828054612a3f9061369c565b8015612a8c5780601f10612a6157610100808354040283529160200191612a8c565b820191906000526020600020905b815481529060010190602001808311612a6f57829003601f168201915b505050505081526020016002820160009054906101000a900460ff16151515158152602001600382018054612ac09061369c565b80601f0160208091040260200160405190810160405280929190818152602001828054612aec9061369c565b8015612b395780601f10612b0e57610100808354040283529160200191612b39565b820191906000526020600020905b815481529060010190602001808311612b1c57829003601f168201915b50505050508152602001600482018054612b529061369c565b80601f0160208091040260200160405190810160405280929190818152602001828054612b7e9061369c565b8015612bcb5780601f10612ba057610100808354040283529160200191612bcb565b820191906000526020600020905b815481529060010190602001808311612bae57829003601f168201915b50505050508152602001600582018054612be49061369c565b80601f0160208091040260200160405190810160405280929190818152602001828054612c109061369c565b8015612c5d5780601f10612c3257610100808354040283529160200191612c5d565b820191906000526020600020905b815481529060010190602001808311612c4057829003601f168201915b5050505050815260200160068201548152602001600782015481525050816000018190525081816020018190525080945050505050919050565b60007ff0c57e16840df040f15088dc2f81fe391c3923bec73e23a9662efc9c229c6a00905090565b604051806101000160405280600081526020016060815260200160001515815260200160608152602001606081526020016060815260200160008152602001600081525090565b6040518060400160405280612d19612cbf565b8152602001606081525090565b6040518061014001604052806000815260200160008152602001606081526020016000151581526020016060815260200160608152602001606081526020016000815260200160008152602001600081525090565b6000604051905090565b600080fd5b600080fd5b600080fd5b600080fd5b6000601f19601f8301169050919050565b7f4e487b7100000000000000000000000000000000000000000000000000000000600052604160045260246000fd5b612de282612d99565b810181811067ffffffffffffffff82111715612e0157612e00612daa565b5b80604052505050565b6000612e14612d7b565b9050612e208282612dd9565b919050565b600067ffffffffffffffff821115612e4057612e3f612daa565b5b612e4982612d99565b9050602081019050919050565b82818337600083830152505050565b6000612e78612e7384612e25565b612e0a565b905082815260208101848484011115612e9457612e93612d94565b5b612e9f848285612e56565b509392505050565b600082601f830112612ebc57612ebb612d8f565b5b8135612ecc848260208601612e65565b91505092915050565b600060208284031215612eeb57612eea612d85565b5b600082013567ffffffffffffffff811115612f0957612f08612d8a565b5b612f1584828501612ea7565b91505092915050565b600081519050919050565b600082825260208201905092915050565b6000819050602082019050919050565b6000819050919050565b612f5d81612f4a565b82525050565b600081519050919050565b600082825260208201905092915050565b60005b83811015612f9d578082015181840152602081019050612f82565b60008484015250505050565b6000612fb482612f63565b612fbe8185612f6e565b9350612fce818560208601612f7f565b612fd781612d99565b840191505092915050565b60008115159050919050565b612ff781612fe2565b82525050565b6000610100830160008301516130166000860182612f54565b506020830151848203602086015261302e8282612fa9565b91505060408301516130436040860182612fee565b506060830151848203606086015261305b8282612fa9565b915050608083015184820360808601526130758282612fa9565b91505060a083015184820360a086015261308f8282612fa9565b91505060c08301516130a460c0860182612f54565b5060e08301516130b760e0860182612f54565b508091505092915050565b60006130ce8383612ffd565b905092915050565b6000602082019050919050565b60006130ee82612f1e565b6130f88185612f29565b93508360208202850161310a85612f3a565b8060005b85811015613146578484038952815161312785826130c2565b9450613132836130d6565b925060208a0199505060018101905061310e565b50829750879550505050505092915050565b6000602082019050818103600083015261317281846130e3565b905092915050565b61318381612f4a565b811461318e57600080fd5b50565b6000813590506131a08161317a565b92915050565b6000602082840312156131bc576131bb612d85565b5b60006131ca84828501613191565b91505092915050565b600080604083850312156131ea576131e9612d85565b5b60006131f885828601613191565b925050602083013567ffffffffffffffff81111561321957613218612d8a565b5b61322585828601612ea7565b9150509250929050565b600073ffffffffffffffffffffffffffffffffffffffff82169050919050565b600061325a8261322f565b9050919050565b61326a8161324f565b82525050565b60006020820190506132856000830184613261565b92915050565b6132948161324f565b811461329f57600080fd5b50565b6000813590506132b18161328b565b92915050565b6000602082840312156132cd576132cc612d85565b5b60006132db848285016132a2565b91505092915050565b600080600080608085870312156132fe576132fd612d85565b5b600085013567ffffffffffffffff81111561331c5761331b612d8a565b5b61332887828801612ea7565b945050602085013567ffffffffffffffff81111561334957613348612d8a565b5b61335587828801612ea7565b935050604085013567ffffffffffffffff81111561337657613375612d8a565b5b61338287828801612ea7565b925050606085013567ffffffffffffffff8111156133a3576133a2612d8a565b5b6133af87828801612ea7565b91505092959194509250565b600081519050919050565b600082825260208201905092915050565b6000819050602082019050919050565b6000610140830160008301516134006000860182612f54565b5060208301516134136020860182612f54565b506040830151848203604086015261342b8282612fa9565b91505060608301516134406060860182612fee565b50608083015184820360808601526134588282612fa9565b91505060a083015184820360a08601526134728282612fa9565b91505060c083015184820360c086015261348c8282612fa9565b91505060e08301516134a160e0860182612f54565b506101008301516134b6610100860182612f54565b506101208301516134cb610120860182612f54565b508091505092915050565b60006134e283836133e7565b905092915050565b6000602082019050919050565b6000613502826133bb565b61350c81856133c6565b93508360208202850161351e856133d7565b8060005b8581101561355a578484038952815161353b85826134d6565b9450613546836134ea565b925060208a01995050600181019050613522565b50829750879550505050505092915050565b600060408301600083015184820360008601526135898282612ffd565b915050602083015184820360208601526135a382826134f7565b9150508091505092915050565b600060208201905081810360008301526135ca818461356c565b905092915050565b600082825260208201905092915050565b60006135ee82612f63565b6135f881856135d2565b9350613608818560208601612f7f565b61361181612d99565b840191505092915050565b6000602082019050818103600083015261363681846135e3565b905092915050565b7f4e487b7100000000000000000000000000000000000000000000000000000000600052603260045260246000fd5b7f4e487b7100000000000000000000000000000000000000000000000000000000600052602260045260246000fd5b600060028204905060018216806136b457607f821691505b6020821081036136c7576136c661366d565b5b50919050565b60008190508160005260206000209050919050565b600081546136ef8161369c565b6136f981866135d2565b94506001821660008114613714576001811461372a5761375d565b60ff19831686528115156020028601935061375d565b613733856136cd565b60005b8381101561375557815481890152600182019150602081019050613736565b808801955050505b50505092915050565b6000602082019050818103600083015261378081846136e2565b905092915050565b7f4e487b7100000000000000000000000000000000000000000000000000000000600052601160045260246000fd5b60006137c282612f4a565b91507fffffffffffffffffffffffffffffffffffffffffffffffffffffffffffffffff82036137f4576137f3613788565b5b600182019050919050565b600061380a82612f4a565b915061381583612f4a565b925082820390508181111561382d5761382c613788565b5b92915050565b7f4f6e6c79206f6e7765722063616e20706572666f726d2074686973206163746960008201527f6f6e000000000000000000000000000000000000000000000000000000000000602082015250565b600061388f6022836135d2565b915061389a82613833565b604082019050919050565b600060208201905081810360008301526138be81613882565b9050919050565b7f4d65646963616c207265636f726420646f6573206e6f74206578697374000000600082015250565b60006138fb601d836135d2565b9150613906826138c5565b602082019050919050565b6000602082019050818103600083015261392a816138ee565b9050919050565b7f4d65646963616c207265636f726420686173206265656e2064656c6574656400600082015250565b6000613967601f836135d2565b915061397282613931565b602082019050919050565b600060208201905081810360008301526139968161395a565b9050919050565b60006020601f8301049050919050565b600082821b905092915050565b6000600883026139ea7fffffffffffffffffffffffffffffffffffffffffffffffffffffffffffffffff826139ad565b6139f486836139ad565b95508019841693508086168417925050509392505050565b6000819050919050565b6000613a31613a2c613a2784612f4a565b613a0c565b612f4a565b9050919050565b6000819050919050565b613a4b83613a16565b613a5f613a5782613a38565b8484546139ba565b825550505050565b600090565b613a74613a67565b613a7f818484613a42565b505050565b5b81811015613aa357613a98600082613a6c565b600181019050613a85565b5050565b601f821115613ae857613ab9816136cd565b613ac28461399d565b81016020851015613ad1578190505b613ae5613add8561399d565b830182613a84565b50505b505050565b600082821c905092915050565b6000613b0b60001984600802613aed565b1980831691505092915050565b6000613b248383613afa565b9150826002028217905092915050565b613b3d82612f63565b67ffffffffffffffff811115613b5657613b55612daa565b5b613b60825461369c565b613b6b828285613aa7565b600060209050601f831160018114613b9e5760008415613b8c578287015190505b613b968582613b18565b865550613bfe565b601f198416613bac866136cd565b60005b82811015613bd457848901518255600182019150602085019450602081019050613baf565b86831015613bf15784890151613bed601f891682613afa565b8355505b6001600288020188555050505b505050505050565b613c0f81612f4a565b82525050565b6000602082019050613c2a6000830184613c06565b92915050565b6000819050919050565b600067ffffffffffffffff82169050919050565b6000613c69613c64613c5f84613c30565b613a0c565b613c3a565b9050919050565b613c7981613c4e565b82525050565b6000602082019050613c946000830184613c70565b92915050565b6000604082019050613caf6000830185613261565b613cbc6020830184613c06565b939250505056fea2646970667358221220b5c63d4310c1742d5aa2c340cca4fbb41aa9c5a8ac3ee27950e601807a1ea1ea64736f6c63430008140033",
  "linkReferences": {},
  "deployedLinkReferences": {}
}